{
  "_format": "hh-sol-artifact-1",
  "contractName": "TaskManager",
  "sourceName": "blockchain/contracts/TaskManager.sol",
  "abi": [
    {
      "anonymous": false,
      "inputs": [
        {
          "indexed": true,
          "internalType": "uint256",
          "name": "taskId",
          "type": "uint256"
        },
        {
          "indexed": true,
          "internalType": "address",
          "name": "publisher",
          "type": "address"
        },
        {
          "indexed": false,
          "internalType": "string",
          "name": "dataHash",
          "type": "string"
        }
      ],
      "name": "TaskPublished",
      "type": "event"
    },
    {
      "anonymous": false,
      "inputs": [
        {
          "indexed": true,
          "internalType": "uint256",
          "name": "taskId",
          "type": "uint256"
        },
        {
          "indexed": true,
          "internalType": "address",
          "name": "publisher",
          "type": "address"
        },
        {
          "indexed": false,
          "internalType": "string",
          "name": "newDataHash",
          "type": "string"
        }
      ],
      "name": "TaskUpdated",
      "type": "event"
    },
    {
      "inputs": [],
      "name": "getTaskIdCounter",
      "outputs": [
        {
          "internalType": "uint256",
          "name": "",
          "type": "uint256"
        }
      ],
      "stateMutability": "view",
      "type": "function"
    },
    {
      "inputs": [
        {
          "internalType": "uint256",
          "name": "taskId",
          "type": "uint256"
        }
      ],
      "name": "getTaskInfo",
      "outputs": [
        {
          "internalType": "address",
          "name": "publisher",
          "type": "address"
        },
        {
          "internalType": "string",
          "name": "dataHash",
          "type": "string"
        }
      ],
      "stateMutability": "view",
      "type": "function"
    },
    {
      "inputs": [
        {
          "internalType": "string",
          "name": "dataHash",
          "type": "string"
        }
      ],
      "name": "publishTask",
      "outputs": [
        {
          "internalType": "uint256",
          "name": "",
          "type": "uint256"
        }
      ],
      "stateMutability": "nonpayable",
      "type": "function"
    },
    {
      "inputs": [
        {
          "internalType": "uint256",
          "name": "",
          "type": "uint256"
        }
      ],
      "name": "taskDataHash",
      "outputs": [
        {
          "internalType": "string",
          "name": "",
          "type": "string"
        }
      ],
      "stateMutability": "view",
      "type": "function"
    },
    {
      "inputs": [
        {
          "internalType": "uint256",
          "name": "taskId",
          "type": "uint256"
        }
      ],
      "name": "taskExists",
      "outputs": [
        {
          "internalType": "bool",
          "name": "",
          "type": "bool"
        }
      ],
      "stateMutability": "view",
      "type": "function"
    },
    {
      "inputs": [
        {
          "internalType": "uint256",
          "name": "",
          "type": "uint256"
        }
      ],
      "name": "taskPublisher",
      "outputs": [
        {
          "internalType": "address",
          "name": "",
          "type": "address"
        }
      ],
      "stateMutability": "view",
      "type": "function"
    },
    {
      "inputs": [
        {
          "internalType": "uint256",
          "name": "taskId",
          "type": "uint256"
        },
        {
          "internalType": "string",
          "name": "newDataHash",
          "type": "string"
        }
      ],
      "name": "updateTask",
      "outputs": [],
      "stateMutability": "nonpayable",
      "type": "function"
    }
  ],
  "bytecode": "0x6080806040523461001657610874908161001c8239f35b600080fdfe6040608081526004908136101561001557600080fd5b600091823560e01c80631ab744651461041b5780631d6e8e6e146103df57806336abfc25146103c257806386533f6c14610160578063d1a1b999146100e5578063d90583df146100a35763ebd5af5a1461006e57600080fd5b3461009f57602036600319011261009f5735825260016020908152918190205490516001600160a01b039091168152f35b8280fd5b5091346100e25760203660031901126100e257506100d960209235600052600160205260018060a01b0360406000205416151590565b90519015158152f35b80fd5b5082903461015c57602036600319011261015c573560008181526001602052604090205461011d906001600160a01b031615156107f3565b815260016020526101586101438360018060a01b038185205416936002602052206106c1565b83519384938452806020850152830190610767565b0390f35b5080fd5b503461009f578160031936011261009f578035906024359267ffffffffffffffff938481116103be57610196903690840161062b565b9183865260019460209580875260018060a01b036101ba81868b20541615156107f3565b86895281885284892054163303610355576101da610100865111156107a7565b8588526002875283882092855192831161034257506101f98354610687565b601f81116102fc575b5086601f8311600114610275579180807fbe0d22f0e158e957215ee1d35dc3dcc4ef716b9c527271105c1402907f0238ce97959361026497958c9361026a575b501b916000199060031b1c19161790555b519182918683523396830190610767565b0390a380f35b870151925038610242565b83895287892091929190601f1983168a5b8a8282106102e85750509183917fbe0d22f0e158e957215ee1d35dc3dcc4ef716b9c527271105c1402907f0238ce989694610264989694106102cf575b5050811b019055610253565b86015160001960f88460031b161c1916905538806102c3565b898401518555938601939283019201610286565b838952878920601f840160051c810191898510610338575b601f0160051c019082905b82811061032d575050610202565b8a815501829061031f565b9091508190610314565b634e487b7160e01b895260419052602488fd5b835162461bcd60e51b8152808401889052603c60248201527f5461736b4d616e616765723a204f6e6c7920746865207461736b207075626c6960448201527f736865722063616e20706572666f726d207468697320616374696f6e000000006064820152608490fd5b8580fd5b50503461015c578160031936011261015c57602091549051908152f35b503461009f57602036600319011261009f578161015893610408923581526002602052206106c1565b9051918291602083526020830190610767565b50903461009f57602092836003193601126100e25767ffffffffffffffff92803584811161009f57610450903690830161062b565b91610460610100845111156107a7565b8054946000198087146105e0576001928388018155878152838952868120336bffffffffffffffffffffffff60a01b825416179055600289528681209486519384116105cd57506104b18554610687565b601f8111610587575b508890601f841160011461052957929384918261051e575b501b9260031b1c19161790555b827f31c1351bb52f89f29d764c4520fd6a6f0d51eff05a2067483c9d3c1a2c12b9b6835186815280610515339589830190610767565b0390a351908152f35b8701519350386104d2565b919083601f1981168785528b8520945b8c888383106105705750505010610558575b505050811b0190556104df565b8601519060f88460031b161c1916905538808061054b565b858c01518855909601959384019387935001610539565b858252898220601f850160051c8101918b86106105c3575b601f0160051c019085905b8281106105b85750506104ba565b8381550185906105aa565b909150819061059f565b634e487b7160e01b825260419052602490fd5b634e487b7160e01b835260118452602483fd5b90601f8019910116810190811067ffffffffffffffff82111761061557604052565b634e487b7160e01b600052604160045260246000fd5b81601f820112156106825780359067ffffffffffffffff82116106155760405192610660601f8401601f1916602001856105f3565b8284526020838301011161068257816000926020809301838601378301015290565b600080fd5b90600182811c921680156106b7575b60208310146106a157565b634e487b7160e01b600052602260045260246000fd5b91607f1691610696565b90604051918260008254926106d584610687565b9081845260019485811690816000146107445750600114610701575b50506106ff925003836105f3565b565b9093915060005260209081600020936000915b81831061072c5750506106ff935082010138806106f1565b85548884018501529485019487945091830191610714565b9150506106ff94506020925060ff191682840152151560051b82010138806106f1565b919082519283825260005b848110610793575050826000602080949584010152601f8019910116010190565b602081830181015184830182015201610772565b156107ae57565b60405162461bcd60e51b815260206004820152601f60248201527f5461736b4d616e616765723a2044617461206861736820746f6f206c6f6e67006044820152606490fd5b156107fa57565b606460405162461bcd60e51b815260206004820152602060248201527f5461736b4d616e616765723a205461736b20646f6573206e6f742065786973746044820152fdfea264697066735822122008e73e24fff60b21d44e3fd082805ef8a6e1cae4762922226d497bc6ef99fcd264736f6c63430008140033",
  "linkReferences": {},
  "deployedLinkReferences": {}
}